:02000000A82E28
:10000800FF00030E8301B1000A08B2008A01A1268D
:0E00180032088A00310E8300FF0E7F0E0900B1
:0E0026008312031362088A006108820008003A
:0E003400F201F101F001F801F30100300800C3
:100042008312031322089300831614182A2800002F
:0A005200252883121308F0000800AF
:08005C00FA1FF2130030080046
:1000640083160313141940281F301105F100710879
:10007400003A031D40280130F0004128F001080037
:100084007B15FB1F4C280130F300F201F101F00154
:08009400FA0DF20CFF30080028
:06009C00FB15FF30080017
:1000A200FB14FB1F5B28FF30F300F200F100F000AD
:0800B200FA0DF20CFF3008000A
:1000BA00831203132A08EC002B08ED002C08EE002B
:1000CA002D08EF00EA01EB016B08123C031D6F28B3
:1000DA006A088E3C031C7B28322070080319762894
:1000EA007B288312EA0A0319EB0A69288312123061
:1000FA006B02031D82288F306A02031C87287B301B
:10010A00F000B428831611148316111CB328831225
:10011A002A082B042C042D040319B2286C086D0438
:10012A006E046F04031DAA2860088400053080004D
:10013A00840A5E08E1005F08E20013208A110A12AD
:10014A00013083120313F000B4280130EC02031CBF
:10015A00ED02031CEE02031CEF028928F0010800DD
:10016A007B14FB1FC028F201FA1FFF30F200F100D6
:0A017A00F000FA0DF20CFF3008004F
:10018400A0017208031DD7287108F2007008F1005D
:10019400F001A0157208031DD7287108F200F101BF
:1001A400A011201672080319E5282008F302031D84
:1001B400031CE9280310F21BED28F00DF10DF20DDC
:1001C400F30BDD28E9280130FC001A20F028023066
:0E01D400FC004220F0280430FC002E20080021
:1001E200831203138C11210893002A08EA002B08BA
:1001F200EB002C08EC002D08ED008316141D2829B5
:1002020083122A082B042C042D04031927296A08B7
:100212006B046C046D04031D1F2960088400043004
:100222008000840A5E08E1005F08E20013208A1160
:100232000A12013083120313F00061290130EA022D
:10024200031CEB02031CEC02031CED02FE288312CA
:100252002A08EA002B08EB002C08EC002D08ED0020
:100262008C1959292A082B042C042D040319582906
:100272006A086B046C046D04031D50296008840035
:1002820004308000840A5E08E1005F08E200132067
:100292008A110A12013083120313F000612901301E
:1002A200EA02031CEB02031CEC02031CED023129DF
:1002B2008316111B5E29F001612911150230F0002D
:0202C200080032
:1002C4000E3083120313FD00FD0B662900000800A5
:0802D400831603131115080045
:1002DC00323083120313D8000030D9000030DA001A
:1002EC0000305D30CC000030CD000030CE0000304E
:1002FC00FF30C900FF30CA000030CB000030FF30A7
:10030C00CF00FF30D000FF30D100FF30F130D500EE
:10031C000030D6002130D70000306A30D2000130D6
:10032C00D3000030D4000030831614139413071636
:0A033C008715383083129400080082
:10034600831203139F01C0309F042809F000700830
:1003560083169F051F179F1783126608F000F00D7E
:100366007010F00D7010F00D701070089F041F14BF
:1003760062211F151F1DC1290000BD291F101E085F
:10038600F100F00183161E08F0040030F1040800A5
:100396005D20A23083120313A100F1208312031300
:1003A6006708A100F120831203136608A100F1205B
:0403B6006A210800B0
:1003BA00831203137408003A031DF8297508003ADA
:1003CA00031DF8297608003A031DF8297708003A30
:1003DA00031DF829FF30F000FF30F1007F30F200F2
:1003EA00FF30F300932A8312031377080319872A2D
:1003FA00730803198A2A720876068039FA00F217F6
:10040A00F617A0017208F8007108FC007008FD00D8
:10041A007408FD027508031C750FFC027608031C9C
:10042A00760FF802F801FC01FD01031C232A0310D0
:10043A00F20CF10CF00CF80C0130A0007708F30272
:10044A00031C2D2A7E302007F30703188D2A322A2F
:10045A007E302007F307031C902A1830FA07FD0D97
:10046A00FC0DF80DF00DF10DF20DA00D7408F0025F
:10047A007508031C750FF1027608031C760FF20249
:10048A00760DA004201C4B2A7D14562A7408F00706
:10049A0075080318750FF10776080318760AF2072C
:1004AA007D10FA031F307A05031D342A7B1B7D1C3D
:1004BA007D2A0310F00DF10DF20DA00D7408F00263
:1004CA007508031C750FF1027608031C760FF202F9
:1004DA00760D20040139FD070318FC0A0319F80AEE
:1004EA00031D7D2AF80CFC0CFD0CF30A03198D2A56
:1004FA00FA1FF8137808F2007C08F1007D08F00072
:10050A000030922A01304E20922A02301A20922A72
:0E051A0004305120922A0830422000000800D0
:10052800831203137008F8007108F000F101F2015A
:10053800F301FB01FC019630F300FA017008F100A9
:0C0548007808F000F801F201C220080061
:1005540083120313F801F9011030FC00710DF80D3A
:10056400F90D7408F8027508031C750FF9020318D5
:10057400C22A7408F80775080318750FF9070310E1
:0A058400F00DF10DFC0BB02A080089
:10058E00831203137008F100F0010830FC007108AB
:10059E00F40C0318D62AFC0BCF2AF10100340310F9
:1005AE00DB2AF40C0318F107F10CF00CFC0BD82A23
:0205BE00080033
:1005C00083120313FB01FC01FA01730803191F2BAB
:1005D000F2178E30F302F31BF02A0319F02A222BB4
:1005E000F309F30A08307302031C052BF300F10D25
:1005F0007208F100F20108307302031C052BF10DA3
:10060000F1017308031D03100D2B730803190D2B43
:100610000310F20CF10CF30B082B7B1B711C172B36
:10062000031C172BF10A0319F20AF21B2E2BFA1FD7
:10063000312BF209F109F10A0319F20A312BF20107
:10064000F101312B7B14FB1F342BF201FA1F342BE9
:10065000FF30F200F100FA0DF20C342B0130FC00F7
:10066000362B0030FC00362BFF30FC00FC08031951
:0E0670003A2BB5207108F0007208F100080066
:10067E0083120313FB01FA01F9018030F800F10C2B
:10068E00F00C031C532B7408F90775080318750F2B
:10069E00FA070318FB0A0310F01F5B2B7408FA0706
:1006AE0075080318750FFB07FB0CFA0CF90CF80C08
:1006BE00031C462B7B08F3007A08F2007908F10040
:0606CE007808F0000800AE
:1006D400831203132508093A031DF72B2508F0009C
:1006E400F00D70107008333EE4000530E600A321DD
:1006F400831264088400700880007108840A8000F2
:10070400A50135083307F00034080318013E360705
:10071400F1003708F00738080318013EF1073908DB
:10072400F0073A080318013EF1073B08F0073C08BC
:100734000318013EF1073D08F0073E080318013E87
:10074400F1073F08F00740080318013EF10741088C
:10075400F00742080318013EF1074308F007440874
:100764000318013EF1074508F00746080318013E47
:10077400F1070A30F4000030F500AA227008E40002
:100784007108E5006408B0004808F0000A30F4007D
:10079400C7224708F0077008AF0070086402F10030
:1007A400F201031CF2038030F00080307206700204
:1007B400031DDE2B7108053C0318E32B0715871274
:1007C400F62B2F083002F100F201031CF2038030F3
:1007D4007206F0007F307002031DF22BFB307102B1
:1007E4000318F62B87160711332C2508F000F00D9B
:1007F40070107008333EE4000530E600A321831234
:1008040064088400700880007108840A8000250848
:10081400F000F00D70107008333EE40064088400AA
:100824000008F000840A0008F1009630F400F50195
:100834003F230530F4000030F5003F2394220030BC
:10084400F400D030F5003F30F6008930F700DD21A8
:10085400E02264088400700880007108840A800023
:04086400A50A0800D9
:1008680083120313871E422C2608003A031D402CCE
:100878000130A6000615422CA6010611071D452CBD
:040888000615080049
:10088C00831203132408003A031D552C0130A400D5
:10089C008316851505118312480888005C2CA40169
:0E08AC00831605158511831247088800080081
:1008BA00FF3083120313DB00FF30DC00FF30DD0062
:1008CA00FF309F01C0309F042809F000700883168A
:0C08DA009F051F179F1783121F140800B2
:0C08E60014308316031393006E210800E9
:1008F20083120313061CB32C2E08003A031D862C08
:100902000130AE000630C800C7014808073A031D8F
:100912008F2C4708053A031D8F2CB32C4708003A49
:10092200031DA12C0530C7074808E6000230E70086
:10093200CB2183124708E6000330E700CB21B32C1A
:1009420083124708053A031DB32CC80AC701480899
:10095200E6000230E700CB2183124708E6000330AD
:10096200E700CB218312861CEB2C2E08003A031DD4
:10097200BF2C0130AE000630C800C7014808033A58
:10098200031DC82C4808053A031DC82CEB2C480847
:10099200053A031DD82C4808E6000230E700CB21B7
:1009A20083124708E6000330E700CB21EB2C8312C9
:1009B2004808003A031DEB2CC8030530C70048085D
:1009C200E6000230E700CB2183124708E60003303D
:0609D200E700CB21080044
:0A09D8000B178B175D247324080031
:1009E20083120313861EF72C2308A3062708013A55
:1009F200031D712E2308013A031D712E102D792437
:100A02004624A701702E792446246A23A701702E5A
:100A1200792446246A233424A701A901702E2908C7
:100A2200143A0319002D2908283A0319002D290820
:100A32003C3A0319002D2908503A0319002D2908C0
:100A4200783A0319002D29088C3A0319002D290838
:100A5200A03A0319002D2908B43A0319002D2908D8
:100A6200DC3A0319002D2908F03A0319002D003051
:100A7200013A031D3E2D043029060319002D0030D2
:100A8200013A031D462D183029060319002D0030A6
:100A9200013A031D4E2D403029060319002D003066
:100AA200013A031D562D543029060319002D00303A
:100AB200013A031D5E2D683029060319002D00300E
:100AC200013A031D662D7C3029060319002D0030E2
:100AD200013A031D6E2DA43029060319002D0030A2
:100AE200013A031D762DB83029060319002D003076
:100AF200013A031D7E2DCC3029060319002D00304A
:100B0200013A031D862DE03029060319002D00301D
:100B1200023A031D8E2D083029060319002D0030DC
:100B2200023A031D962D1C3029060319002D0030B0
:100B3200023A031D9E2D303029060319002D003084
:100B4200023A031DA62D443029060319002D003058
:100B5200023A031DAE2D6C3029060319002D003018
:100B6200023A031DB62D803029060319002D0030EC
:100B7200023A031DBE2D943029060319002D0030C0
:100B8200023A031DC62DA83029060319002D003094
:100B9200023A031DCE2DD03029060319002D003054
:100BA200023A031DD62DE43029060319002D003028
:100BB200023A031DDE2DF83029060319002D0030FC
:100BC200033A031DE62D0C3029060319002D0030CF
:100BD200033A031DEE2D343029060319002D00308F
:100BE200033A031DF62D483029060319002D003063
:100BF200033A031DFE2D5C3029060319002D003037
:100C0200033A031D062E703029060319002D003009
:100C1200033A031D0E2E983029060319002D0030C9
:100C2200033A031D162EAC3029060319002D00309D
:100C3200033A031D1E2EC03029060319002D003071
:100C4200033A031D262ED43029060319002D290844
:100C5200643A0319042D2908C83A0319042D0030F7
:100C6200013A031D362E2C3029060319042D0030BB
:100C7200013A031D3E2E903029060319042D00303F
:100C8200013A031D462EF43029060319042D0030C3
:100C9200023A031D4E2E583029060319042D003046
:100CA200023A031D562EBC3029060319042D0030CA
:100CB200033A031D5E2E203029060319042D00304D
:100CC200033A031D662E843029060319042D0030D1
:100CD200033A031D6E2EE83029060319092D742EDE
:0A0CE200831605158515F12C080096
:100CEC00831203138E018F011012901290101014A6
:100CFC006308950096010B30970083160C150800BD
:0E0D0C008312031362088A0061088200080047
:100D1A00903083120313E3007626EC24F1240800B2
:100D2A0086268A110A128000840AE10A0319E20A55
:080D3A00F003031D952E0800D3
:0E0D4200143083120313A9070130A700080024
:100D5000D2268316031389168801061486140611F9
:100D60008312061183160711831207118316871247
:100D700083128712861ABD2EBA2E0130A3008D264B
:020D8000C02E83
:100DA400233084000C3083120313F000C630E100BA
:080DB4000630E200952608005C
:020D8C00003431
:020D8E0000342F
:020D900000342D
:020D920000342B
:020D9400003429
:020D96000F3418
:020D9800003425
:080D9A00003400340034003481
:020DA20000341B
:02400E004A2F37
:00000001FF
