:040000008A15002835
:10000800FF00030E8301B6000A08B5008A017008D4
:10001800A1000C1D1728AC0A2C08643A031D1628E9
:100028009A27AC010C112108F00035088A00360E19
:080038008300FF0E7F0E09009A
:0E004000F201F101F001F801F30100300800B7
:10004E007B15FB1F31280130F300F201F101F001A5
:08005E00FA0DF20CFF3008005E
:08006600FA1FF213003008003C
:10006E0083120313240893008316141840280000EB
:0A007E003B2883121308F00008006D
:1000880083160313141952281F301105F100710843
:10009800003A031D52280130F0005328F0010800EF
:0E00A8008312031355088A00540882000800D2
:1000B600831203138C11230893002F088316A600BE
:1000C600831230088316A700831231088316A8000E
:1000D600831232088316A9008316141D9C288312E6
:1000E6002F0830043104320403199B28831626088E
:1000F600270428042904031D922883125208840029
:1001060004308000840A5008D4005108D5005420D9
:100116008A110A12013083120313F000E02801301D
:100126008316A602031CA702031CA802031CA9022D
:100136006F2883122F088316A600831230088316B1
:10014600A700831231088316A8008312320883168B
:10015600A90083128C19D8282F08300431043204E0
:100166000319D72883162608270428042904031D03
:10017600CE2883125208840004308000840A500876
:10018600D4005108D50054208A110A120130831276
:100196000313F000E02801308316A602031CA70211
:1001A600031CA802031CA902AC288316111BDD2818
:0C01B600F001E02811150230F0000800F4
:0801C200831603131115080058
:1001CA00FB14FB1FEF28FF30F300F200F100F000F0
:0801DA00FA0DF20CFF300800E1
:1001E2000E3083120313FD00FD0BF52800000800FA
:1001F200831203132F088316A80083123008831674
:10020200A900831231088316AA00831232088316CA
:10021200AB00A601A7012708123C031D12292608DC
:100222008E3C031C1D2944207008031919291D291D
:10023200A60A0319A70A0C2912302702031D232933
:100242008F302602031C28297B30F0005729111415
:100252008316111C562983122F08300431043204EC
:10026200031955298316280829042A042B04031D7F
:100272004C2983125208840005308000840A5008F9
:10028200D4005108D50054208A110A120130831279
:100292000313F000572901308316A802031CA90298
:0E02A200031CAA02031CAB022929F00108006C
:1002B0007B14FB1F6329F201FA1FFF30F200F100EB
:0A02C000F000FA0DF20CFF30080008
:0602CA00FB15FF300800E7
:1002D000A0017208031D7D297108F2007008F10069
:1002E000F001A0157208031D7D297108F200F101CB
:1002F000A0112016720803198B292008F302031D90
:10030000031C8F290310F21B9329F00DF10DF20D40
:10031000F30B83298F290130FC002020962902301D
:0E032000FC00272096290430FC003320080042
:10032E0083120313FB01FC01FA0173080319D6298A
:10033E00F2178E30F302F31BA7290319A729D92927
:10034E00F309F30A08307302031CBC29F300F10D04
:10035E007208F100F20108307302031CBC29F10D82
:10036E00F1017308031D0310C42973080319C4296E
:10037E000310F20CF10CF30BBF297B1B711CCE2961
:10038E00031CCE29F10A0319F20AF21BE529FA1F02
:10039E00E829F209F109F10A0319F20AE829F20132
:1003AE00F101E8297B14FB1FEB29F201FA1FEB295F
:1003BE00FF30F200F100FA0DF20CEB290130FC00D7
:1003CE00ED290030FC00ED29FF30FC00FC0803197C
:0E03DE00F12958217108F0007208F1000800A2
:1003EC00831203137008F100F0010830FC0071084F
:1003FC00F40C0318052AFC0BFE29F1010034031040
:10040C000A2AF40C0318F107F10CF00CFC0B072A68
:02041C000800D6
:10041E0083120313FB01FA01F9018030F800F10C8D
:10042E00F00C031C232A7408F90775080318750FBE
:10043E00FA070318FB0A0310F01F2B2A7408FA0799
:10044E0075080318750FFB07FB0CFA0CF90CF80C6A
:10045E00031C162A7B08F3007A08F2007908F100D3
:06046E007808F000080010
:10047400831203137008F8007108F000F101F2010F
:10048400F301FB01FC019630F300FA017008F1005E
:0C0494007808F000F801F201682108006F
:1004A00083120313F8010830FC00700DF80D740876
:1004B000F80203185D2AF8070310F00DFC0B552A0B
:0204C000080032
:1004C200831203139F01C0309F042D09F0007008AE
:1004D20083169F051F179F1783126F08F000F00DF8
:1004E2007010F00D7010F00D701070089F041F1442
:1004F200F1201F151F1D7F2A00007B2A1F101E08D6
:10050200F100F00183161E08F0040030F104080027
:10051200F920A23083120313A3005B208316031376
:1005220025088312A3005B20831603132408831279
:08053200A3005B20E12008009A
:10053A0083120313F801F9011030FC00710DF80D54
:10054A00F90D7408F8027508031C750FF9020318EF
:10055A00B52A7408F80775080318750FF907031008
:0A056A00F00DF10DFC0BA32A0800B0
:10057400831203137408003A031DD52A7508003A40
:10058400031DD52A7608003A031DD52A7708003AB8
:10059400031DD52AFF30F000FF30F1007F30F20058
:1005A400FF30F300702B8312031377080319642BB5
:1005B40073080319672B720876068039FA00F2175C
:1005C400F617A0017208F8007108FC007008FD001D
:1005D4007408FD027508031C750FFC027608031CE1
:1005E400760FF802F801FC01FD01031C002B031037
:1005F400F20CF10CF00CF80C0130A0007708F302B7
:10060400031C0A2B7E302007F30703186A2B0F2BD9
:100614007E302007F307031C6D2B1830FA07FD0DFD
:10062400FC0DF80DF00DF10DF20DA00D7408F002A3
:100634007508031C750FF1027608031C760FF2028D
:10064400760DA004201C282B7D14332B7408F0078E
:1006540075080318750FF10776080318760AF20770
:100664007D10FA031F307A05031D112B7B1B7D1CA3
:100674005A2B0310F00DF10DF20DA00D7408F002C9
:100684007508031C750FF1027608031C760FF2023D
:10069400760D20040139FD070318FC0A0319F80A32
:1006A400031D5A2BF80CFC0CFD0CF30A03196A2BDE
:1006B400FA1FF8137808F2007C08F1007D08F000B6
:1006C40000306F2B013065216F2B023020206F2BFF
:0E06D4000430E5206F2B0830272000000800BE
:1006E2008312031306189E2B25080130031D0030C8
:1006F200F1007108A5007108003A031D9E2B061334
:10070200880185120230FB000430FC00BA30FD0083
:10071200FD0B892BFC0B892BFB0B892B000005128F
:100722000230FB000430FC00BA30FD00FD0B972BB9
:0C073200FC0B972BFB0B972B0000080022
:10073E00831203130619E02B0130A700A601370818
:10074E00033A031DAF2B3808053A031DAF2BD72BE9
:10075E003808053A031DC22BB80137088316A400CA
:10076E000230A5008922831238088316A4000330B4
:10077E00A5008922D72B83123808003A031DD72BE8
:10078E000530B800B70337088316A4000230A50061
:10079E008922831238088316A4000330A50089220B
:1007AE0083123708F0000A30F400F621380870077B
:0407BE00BA00080075
:1007C20083120313871EF22B02302807F1007108EF
:1007D200A80071080A3A031DF12B80308606A80191
:0A07E200F52B071DF52B8617080004
:1007EC00831203138618372C0130A700A601370893
:1007FC00073A031D062C3808053A031D062C2E2C2F
:10080C003808003A031D1A2C0530B8073708831630
:10081C00A4000230A5008922831238088316A40094
:10082C000330A50089222E2C83123808053A031DAB
:10083C002E2CB801B70A37088316A4000230A50085
:10084C008922831238088316A4000330A50089225C
:10085C0083123708F0000A30F400F62138087007CC
:04086C00BA000800C6
:10087000831203132708013A031D752C2608003A3A
:100880000319532C26080A3A0319532C2608143A44
:100890000319532C26081E3A0319532C2608283A0C
:1008A0000319532C562C88010130AA00A60A2608E9
:1008B000053A0319682C26080F3A0319682C2608F4
:1008C000193A0319682C2608233A0319682C6A2C54
:1008D000AA01752C26082D3A031D752C05128512C8
:0C08E000A601A701AA010130B300080026
:1008EC00831203133308003A0319532D3408093AC1
:1008FC00031D2D2D3408F000F00D70107008563EBD
:10090C00EE000230EF0061229630F400F5010F2268
:10091C000530F4000030F5000F223A220030F400CC
:10092C00D030F5003F30F6008930F700BA2297211D
:10093C006E088400700880007108840A80005808D2
:10094C005607F00057080318013E5907F1005A08E2
:10095C00F0075B080318013EF1075C08F0075D081F
:10096C000318013EF1075E08F0075F080318013E0B
:10097C00F1076008F00761080318013EF1076208EF
:10098C00F00763080318013EF1076408F0076508D7
:10099C000318013EF1076608F00767080318013ECB
:1009AC00F1076808F00769080318013EF1070A30DF
:1009BC00F4000030F5009D227008EA007008D300A6
:1009CC00B901023039020318042D3908003A031D0D
:1009DC00002D0A30F4005308F00050227808F00083
:1009EC007008B8000A30F4005308F0005022700868
:1009FC00D300022D5308B700B90AE72C3A086A0253
:100A0C00F100F201031CF20380307206F00080301A
:100A1C007002031D132D05307102031C182D0715D0
:100A2C0087122B2D3A086A02F100F201031CF20323
:100A3C007F30F000803072067002031D272D710884
:100A4C00FB3C031C2B2D87160711B401532D3408C6
:100A5C00F000F00D70107008563EEE000230EF0002
:100A6C0061229630F400F5010F220530F4000030BD
:100A7C00F5000F223A220030F400D030F5003F3060
:100A8C00F6008930F700BA2297216E0884007008AE
:0C0A9C0080007108840A8000B40A080081
:100AA800831203132A08013A0319E32D2908003A8F
:100AB800031D952D8512752D5B308800912D4F30C3
:100AC8008800912D66308800912D6D308800912D19
:100AD8007D308800912D07308800912D7F30880067
:100AE800912D3708023A0319602D3708033A031984
:100AF800632D3708043A0319662D3708053A031998
:100B0800692D3708063A03196C2D3708073A031977
:100B18006F2D3708083A0319722D05160130A90000
:100B2800E32D2908013A031DE32D0512B92D3F30A5
:100B38008800E12D06308800E12D5B308800E12D2A
:100B48004F308800E12D66308800E12D6D30880037
:100B5800E12D7D308800E12D07308800E12D7F30C0
:100B68008800E12D6F308800E12D3808003A03191C
:100B78009B2D3808013A03199E2D3808023A0319AB
:100B8800A12D3808033A0319A42D3808043A03198B
:100B9800A72D3808053A0319AA2D3808063A03196B
:100BA800AD2D3808073A0319B02D3808083A03194B
:100BB800B32D3808093A0319B62D8516A90108007E
:100BC800FF3083120313CA00FF30CB00FF30CC0084
:100BD800FF309F01C0309F042D09F0007008831674
:0C0BE8009F051F179F1783121F140800A1
:080BF4000B178B17E425080024
:100BFC00831203132B08013A031D432E2508013AD7
:100C0C00031D432E1A2E5425AB01422E5425762457
:100C1C00AB01422E54257123F6239F2338247624CE
:100C2C00E123AB01AE01422E2E08143A0319092E12
:100C3C002E08283A0319092E2E083C3A0319092EBE
:100C4C002E08503A0319092E2E08783A0319092E4A
:100C5C002E088C3A0319092E2E08A03A0319092ED6
:100C6C002E08B43A0319092E2E08643A03190C2ED7
:100C7C002E08C83A0319102E4C2E2508003A031DD5
:100C8C004C2E06184C2E0130A5000617FE2D080020
:100C9C00831203138E018F011012901290101014F6
:100CAC006D08950096010B30970083160C15080003
:0E0CBC008312031355088A00540882000800B2
:100CCA00831203132F088316A00083123008831699
:100CDA00A100831231088316A200831232088316F8
:100CEA00A30091148316911CA12E83122F0830049D
:100CFA00310432040319A02E831620082104220489
:100D0A002304031D962E83125208840006308000A5
:100D1A00840A5008D4005108D50054208A110A12B6
:100D2A00A12E013083160313A002031CA102031C87
:0A0D3A00A202031CA302772E08009A
:100D4400831203132F088316A0008312300883161E
:100D5400A100831231088316A2008312320883167D
:100D6400A30083128C118316911583128C19E02E23
:100D74002F083004310432040319DF2E83162008AF
:100D8400210422042304031DD52E83125208840057
:100D940003308000840A5008D4005108D500542040
:100DA4008A110A12E02E013083160313A002031CD9
:100DB400A102031CA202031CA302B72E0313831275
:100DC4001308ED002208003A031DEB2E831691163A
:100DD400ED2E8316911283128C1183161116831231
:100DE4002F088316A000831230088316A1008312F3
:100DF40031088316A200831232088316A3008312DB
:100E04008C192A2F2F083004310432040319292F96
:100E140083162008210422042304031D1F2F831298
:100E24005208840003308000840A5008D40051081A
:100E3400D50054208A110A122A2F01308316031375
:100E4400A002031CA102031CA202031CA302012F83
:0A0E5400031383126D08F00008007C
:100E5E00443083120313CD000030CE000030CF009B
:100E6E000030F930C1000030C2000030C300003045
:100E7E006530BE000630BF000030C0000030A2302A
:100E8E00BB000630BC002230BD0000305B30C70016
:100E9E000030C8002330C9000030E130C4000030FB
:100EAE00C5000030C60000308316141394130716C5
:0A0EBE0087153830831294000800F5
:100EC800F920A23083120313A3005B2083120313BB
:100ED8006B08A3005B206526A33083120313A300CD
:100EE8005B2083120313A201A2267008EC00E12004
:080EF80083126C08F0000800F1
:100F0000903083120313ED004E26FA25FE250800CB
:0C0F100014308316031393002F270800F1
:100F1C005E268A110A128000840AD40A0319D50AA3
:080F2C00F003031D8E2F0800E5
:0E0F3400143083120313AE070130AB00080027
:100F640025308400103083120313F000A130D40024
:080F74000730D5008E270800AC
:101000008A11B2278A158A1188278A151A30FC009E
:10101000F830FD00FD0B0A28FC0B0A28000083169F
:1010200006148B170B1788010512851286140615F6
:1010300086138312861383160711831207118316F2
:1010400087128312871291309F00C03083169F0051
:10105000061383120617061C2E282B280130A50024
:101060000430FB000C30FC003330FD00FD0B362853
:10107000FC0B3628FB0B3628000000000230EB008A
:101080008A1164278A157008003A031D4B28063020
:10109000B700B80159280230EB008A1164278A157D
:1010A0007008B7000330EB008A1164278A157008B6
:0A10B000B8008A1180278A155C2819
:020F4200003479
:020F4400003477
:020F4600003475
:020F4800003473
:020F4A00003471
:020F4C0000346F
:020F4E0000346D
:020F500000346B
:020F52000F345A
:020F5400003467
:080F56000034003400340034C3
:020F5E0000345D
:020F600000345B
:02400E004A2F37
:00000001FF
