:040000008A15002835
:10000800FF00030E8301C8000A08C9008A017008AE
:10001800A1000C1D1728B10A3108643A031D1628DF
:10002800C227B1010C112108F00049088A00480EC6
:080038008300FF0E7F0E09009A
:100040008316031314192E281F301105F1007108AF
:10005000003A031D2E280130F0002F28F00108007F
:0E0060008312031353088A005208820008001E
:0E006E00F201F101F001F801F3010030080089
:10007C007B15FB1F48280130F300F201F101F00160
:08008C00FA0DF20CFF30080030
:08009400FA1FF213003008000E
:10009C0083120313240893008316141857280000A6
:0A00AC00522883121308F000080028
:1000B600FB14FB1F6528FF30F300F200F100F0008F
:0800C600FA0DF20CFF300800F6
:0600CE00FB15FF300800E5
:1000D400831203138C11230893002D088316A400A4
:1000E40083122E088316A50083122F088316A600F8
:1000F400831230088316A7008316141DAB288312BD
:100104002D082E042F0430040319AA28831624086A
:10011400250426042704031DA12883125008840003
:1001240004308000840A4E08D2004F08D3003020E7
:100134008A110A12013083120313F000EF280130F0
:100144008316A402031CA502031CA602031CA70217
:100154007E2883122D088316A40083122E0883168A
:10016400A50083122F088316A60083123008831675
:10017400A70083128C19E7282D082E042F043004BD
:100184000319E62883162408250426042704031DDE
:10019400DD2883125008840004308000840A4E084D
:1001A400D2004F08D30030208A110A120130831282
:1001B4000313F000EF2801308316A402031CA502E8
:1001C400031CA602031CA702BB288316111BEC28E0
:0C01D400F001EF2811150230F0000800C7
:0801E00083160313111508003A
:1001E8007B14FB1FFF28F201FA1FFF30F200F10019
:0A01F800F000FA0DF20CFF300800D1
:10020200831203132D088316A60083122E08831669
:10021200A70083122F088316A800831230088316C2
:10022200A900A401A5012508123C031D1A292408CE
:100232008E3C031C25292020700803192129252919
:10024200A40A0319A50A142912302502031D2B2919
:100252008F302402031C30297B30F0005F291114F7
:100262008316111C5E2983122D082E042F043004DC
:1002720003195D2983162608270428042904031D6F
:10028200542983125008840005308000840A4E08E5
:10029200D2004F08D30030208A110A120130831293
:1002A2000313F0005F2901308316A602031CA70284
:0E02B200031CA802031CA9023129F001080058
:1002C0000E3083120313FD00FD0B642900000800AB
:1002D000A0017208031D7D297108F2007008F10069
:1002E000F001A0157208031D7D297108F200F101CB
:1002F000A0112016720803198B292008F302031D90
:10030000031C8F290310F21B9329F00DF10DF20D40
:10031000F30B83298F290130FC0037209629023006
:0E032000FC003E2096290430FC004A20080014
:10032E00831203137008F8007108F000F101F20156
:10033E00F301FB01FC019630F300FA017008F100A5
:0C034E007808F000F801F20168210800B6
:10035A000121A23083120313A3006A20831203131C
:10036A006F08A3006A20831203136E08A3006A2091
:04037A00F020080067
:10037E00831203139F01C0309F042909F0007008F7
:10038E0083169F051F179F1783126E08F000F00D3E
:10039E007010F00D7010F00D701070089F041F1487
:1003AE0060211F151F1DDD290000D9291F101E08F1
:1003BE00F100F00183161E08F0040030F10408006D
:1003CE00831203137408003A031D022A7508003ABB
:1003DE00031D022A7608003A031D022A7708003A06
:1003EE00031D022AFF30F000FF30F1007F30F200D3
:1003FE00FF30F3009D2A8312031377080319912A05
:10040E0073080319942A720876068039FA00F217D7
:10041E00F617A0017208F8007108FC007008FD00C4
:10042E007408FD027508031C750FFC027608031C88
:10043E00760FF802F801FC01FD01031C2D2A0310B2
:10044E00F20CF10CF00CF80C0130A0007708F3025E
:10045E00031C372A7E302007F3070318972A3C2AFD
:10046E007E302007F307031C9A2A1830FA07FD0D79
:10047E00FC0DF80DF00DF10DF20DA00D7408F0024B
:10048E007508031C750FF1027608031C760FF20235
:10049E00760DA004201C552A7D14602A7408F007DE
:1004AE0075080318750FF10776080318760AF20718
:1004BE007D10FA031F307A05031D3E2A7B1B7D1C1F
:1004CE00872A0310F00DF10DF20DA00D7408F00245
:1004DE007508031C750FF1027608031C760FF202E5
:1004EE00760D20040139FD070318FC0A0319F80ADA
:1004FE00031D872AF80CFC0CFD0CF30A0319972A2E
:10050E00FA1FF8137808F2007C08F1007D08F0005D
:10051E0000309C2A013067209C2A023037209C2A0A
:0E052E0004305B209C2A08303E2000000800AC
:10053C00831203132D088316A00083122E08831632
:10054C00A10083122F088316A20083123008831691
:10055C00A30091148316911CDA2A83122D082E0401
:10056C002F0430040319D92A8316200821042204ED
:10057C002304031DCF2A8312500884000630800008
:10058C00840A4E08D2004F08D30030208A110A1278
:10059C00DA2A013083160313A002031CA102031CE8
:0A05AC00A202031CA302B02A0800FB
:1005B60083120313FB01FC01FA01730803191A2BBA
:1005C600F2178E30F302F31BEB2A0319EB2A1D2BCD
:1005D600F309F30A08307302031C002BF300F10D34
:1005E6007208F100F20108307302031C002BF10DB2
:1005F600F1017308031D0310082B73080319082B58
:100606000310F20CF10CF30B032B7B1B711C122B4A
:10061600031C122BF10A0319F20AF21B292BFA1FEB
:100626002C2BF209F109F10A0319F20A2C2BF2011B
:10063600F1012C2B7B14FB1F2F2BF201FA1F2F2B02
:10064600FF30F200F100FA0DF20C2F2B0130FC0006
:10065600312B0030FC00312BFF30FC00FC08031965
:0E066600352BF4207108F0007208F100080036
:10067400831203132D088316A00083122E088316F9
:10068400A10083122F088316A20083123008831658
:10069400A30083128C118316911583128C19782B65
:1006A4002D082E042F0430040319772B83162008F9
:1006B400210422042304031D6D2B8312500884009B
:1006C40003308000840A4E08D2004F08D300302043
:1006D4008A110A12782B013083160313A002031C1B
:1006E400A102031CA202031CA3024F2B03138312B7
:1006F4001308EE002208003A031D832B831691167B
:10070400852B8316911283128C1183161116831272
:100714002D088316A00083122E088316A1008312CD
:100724002F088316A200831230088316A3008312B5
:100734008C19C22B2D082E042F0430040319C12B4D
:1007440083162008210422042304031DB72B8312DB
:100754005008840003308000840A4E08D2004F08F9
:10076400D30030208A110A12C22B013083160313DE
:10077400A002031CA102031CA202031CA302992BC6
:0A078400031383126E08F000080052
:10078E0083120313F8010830FC00700DF80D740885
:10079E00F8020318D42BF8070310F00DFC0BCC2B2A
:0207AE00080041
:1007B00083120313FB017308031D770803192F2C01
:1007C00072087606FA007708F3077E30031CEC2BDC
:1007D000F3020318322CEF2BF302031C352C7208A2
:1007E000F8007108FC007008FD00F817F6170310F8
:1007F000F201F101F0011830A0007D1C092C7408F1
:10080000F00775080318750FF10776080318760FBF
:10081000F207F20CF10CF00CF80CFC0CFD0C0310C0
:10082000A00BFD2BF21B192CF80DF00DF10DF20DA4
:10083000F3037B1B701C2B2CF81F2B2CF00A0319C5
:10084000F10A0319F20A031D2B2CF20CF10CF00C27
:10085000F30A0319322CFA1FF2130030372C01303F
:100860003720372C02305B20372C04303E2000002C
:0208700008007E
:1008720083120313F801F9011030FC00710DF80D19
:10088200F90D7408F8027508031C750FF9020318B4
:10089200512C7408F80775080318750FF90703102F
:0A08A200F00DF10DFC0B3F2C0800D7
:1008AC00831203137008F100F0010830FC0071088A
:1008BC00F40C0318652CFC0B5E2CF10100340310B6
:1008CC006A2CF40C0318F107F10CF00CFC0B672CE0
:0208DC00080012
:1008DE00831203130619AC2C0130AC00AB01470890
:1008EE00033A031D7F2C4308053A031D7F2CA32CCE
:1008FE004308053A031D902CC3014708EE00023051
:10090E00EF00AD2183124308EE000330EF00AD215E
:10091E00A32C83124308003A031DA32C0530C300F9
:10092E00C7034708EE000230EF00AD2183124308E3
:10093E00EE000330EF00AD2183124708F0000A30BD
:0C094E00F400562443087007C60008009F
:10095A00831203132C08013A031DEA2C2B08003AD0
:10096A000319C82C2B080A3A0319C82C2B08143A65
:10097A000319C82C2B081E3A0319C82C2B08283A2D
:10098A000319C82CCB2C88010130A600AB0A2B080E
:10099A00053A0319DD2C2B080F3A0319DD2C2B0815
:1009AA00193A0319DD2C2B08233A0319DD2CDF2C05
:1009BA00A601EA2C2B082D3A031DEA2C05128512F2
:0C09CA00AB01AC01A6010130B200080036
:1009D6000121A23083120313A3006A20831203139A
:1009E6006C08A3006A209E22A33083120313A3007F
:1009F6006A2083120313A2013A237008ED00F02047
:080A060083126D08F0000800E6
:100A0E0083120313871E182D02304D07F100710853
:100A1E00CD0071080A3A031D172D80308606CD01D0
:0A0A2E001B2D071D1B2D8617080065
:100A3800831203138618592D0130AC00AB01470807
:100A4800073A031D2C2D4308053A031D2C2D502D64
:100A58004308003A031D3E2D0530C3074708EE0042
:100A68000230EF00AD2183124308EE000330EF009F
:100A7800AD21502D83124308053A031D502DC301A3
:100A8800C70A4708EE000230EF00AD218312430881
:100A9800EE000330EF00AD2183124708F0000A3062
:0C0AA800F400562443087007C600080044
:100AB400831203132608013A0319E92D2508003A85
:100AC400031D9B2D85127B2D5B308800972D4F30A5
:100AD4008800972D66308800972D6D308800972DFB
:100AE4007D308800972D07308800972D7F3088004F
:100AF400972D4708023A0319662D4708033A03194C
:100B0400692D4708043A03196C2D4708053A03195F
:100B14006F2D4708063A0319722D4708073A03193F
:100B2400752D4708083A0319782D05160130A500DC
:100B3400E92D2508013A031DE92D0512BF2D3F308B
:100B44008800E72D06308800E72D5B308800E72D0C
:100B54004F308800E72D66308800E72D6D3088001F
:100B6400E72D7D308800E72D07308800E72D7F30A2
:100B74008800E72D6F308800E72D4308003A0319F9
:100B8400A12D4308013A0319A42D4308023A03197D
:100B9400A72D4308033A0319AA2D4308043A03195D
:100BA400AD2D4308053A0319B02D4308063A03193D
:100BB400B32D4308073A0319B62D4308083A03191D
:100BC400B92D4308093A0319BC2D8516A50108005F
:100BD4008312031306181A2E27080130031D003050
:100BE400F1007108A7007108003A031D1A2E88014C
:100BF40085120230FB000430FC00BA30FD00FD0B0E
:100C0400012EFC0B012EFB0B012E000005120230FD
:100C1400FB000430FC00BA30FD00FD0B0F2EFC0B72
:100C24000F2EFB0B0F2E000007118712B201861343
:020C34000800B6
:100C3600831203133208003A0319F82E3308093ACF
:100C4600031DD22E3308F000F00D70107008543ECC
:100C5600EC000230EE00BF219721E530F400FF30B2
:100C6600F5001F30F6007730F700D8230A30F4007D
:100C7600D730F5002330F6007830F700E721DB2285
:100C86006C088400700880007108840A8000560889
:100C96005407F00055080318013E5707F10058089D
:100CA600F00759080318013EF1075A08F0075B08D8
:100CB6000318013EF1075C08F0075D080318013EC2
:100CC600F1075E08F0075F080318013EF1076008A8
:100CD600F00761080318013EF1076208F007630890
:100CE6000318013EF1076408F00765080318013E82
:100CF600F1076608F00767080318013EF1070A3096
:100D0600F4000030F50039247008D1007008C500E1
:100D1600C401023044020318A92E4408003A031DF8
:100D2600A52E0A30F4004508F000C7237808F00025
:100D36007008C3000A30F4004508F000C7237008A5
:100D4600C500A72E4508C700C40A8C2E46085102C6
:100D5600F100F201031CF20380307206F0008030CD
:100D66007002031DB82E05307102031CBD2E071537
:100D76008712D02E46085102F100F201031CF2033D
:100D86007F30F000803072067002031DCC2E710891
:100D9600FB3C031CD02E87160711B301F82E33082F
:100DA600F000F00D70107008543EEC000230EE00BA
:100DB600BF219721E530F400FF30F5001F30F60023
:100DC6007730F700D8230A30F400D730F500233007
:100DD600F6007830F700E721DB226C088400700803
:0C0DE60080007108840A8000B30A080035
:100DF200831203132A08013A031D3E2F2708013AE2
:100E0200031D3E2F152F5A25AA013D2F5A251B26B9
:100E1200AA013D2F5A25EA251C256F24AD241B2645
:100E22000725AA01A8013D2F2808143A0319042F07
:100E32002808283A0319042F28083C3A0319042FDA
:100E42002808503A0319042F2808783A0319042F66
:100E520028088C3A0319042F2808A03A0319042FF2
:100E62002808B43A0319042F2808643A0319072FF3
:100E72002808C83A03190B2F502F2708003A031DE0
:100E8200502F0618502F0230EC00EB247008C700D8
:100E92000330EC00EB247008C3000130A700F92EE8
:020EA200080046
:100EA4000B178B179130831203139F00C0308316E6
:040EB4009F00080093
:0E0EB8008312031353088A00520882000800B8
:100EC600831203138E018F011012901290101014CA
:100ED6006808950096010B30970083160C150800DC
:100EE600203083120313CA000030CB000030CC0040
:100EF60000300130BA000130BB000030BC000030C9
:100F06009E30BD000230BE000030BF0000303A30D7
:100F1600C0000330C1002230C20000306A30B40085
:100F26000030B5002330B6000030F030B700003096
:100F3600B8000030B9000030831614139413071656
:0A0F4600871538308312940008006C
:100F5000903083120313E80063275227F926080014
:0C0F60001430831603139300732708005D
:100F6C005C278A110A128000840AD20A0319D30A58
:080F7C00F003031DB62F08006D
:0E0F8400143083120313A8070130AA000800DE
:100FB000253084000F3083120313F000C930D200B3
:080FC0000730D300B62708003A
:101000008A11D8278A158A11B0278A151A30FC0050
:10101000F830FD00FD0B0A28FC0B0A28000083169F
:10102000061488010512851286140615861383128C
:1010300086138316071183120711831687128312F2
:101040008712061C242821280330FB000830FC00EE
:101050007730FD00FD0B2A28FC0B2A28FB0B2A28E1
:101060000130A7000230EC008A11EB248A157008C9
:10107000FF3A031D4D280630C700C3010630EE00BD
:101080000230EF008A11AD218A158312EE01033080
:10109000EF008A11AD218A155C2802308312EC0022
:1010A0008A11EB248A157008C7000330EC008A11FE
:1010B000EB248A157008C3008A11A8278A155F28B7
:020F9200003429
:020F9400003427
:020F9600003425
:020F9800003423
:020F9A000F3412
:020F9C0000341F
:020F9E0000341D
:020FA00000341B
:080FA200003400340034003477
:020FAA00003411
:020FAC0000340F
:020FAE0000340D
:02400E004A2F37
:00000001FF
